{
  "contractName": "ShBallot",
  "abi": [
    {
      "constant": true,
      "inputs": [],
      "name": "votingDeadline",
      "outputs": [
        {
          "name": "",
          "type": "uint256"
        }
      ],
      "payable": false,
      "stateMutability": "view",
      "type": "function"
    },
    {
      "constant": true,
      "inputs": [],
      "name": "votingDuration",
      "outputs": [
        {
          "name": "",
          "type": "uint256"
        }
      ],
      "payable": false,
      "stateMutability": "view",
      "type": "function"
    },
    {
      "constant": true,
      "inputs": [],
      "name": "votingMode",
      "outputs": [
        {
          "name": "",
          "type": "uint8"
        }
      ],
      "payable": false,
      "stateMutability": "view",
      "type": "function"
    },
    {
      "constant": true,
      "inputs": [],
      "name": "myString",
      "outputs": [
        {
          "name": "",
          "type": "string"
        }
      ],
      "payable": false,
      "stateMutability": "view",
      "type": "function"
    },
    {
      "constant": true,
      "inputs": [],
      "name": "winnerSelected",
      "outputs": [
        {
          "name": "",
          "type": "bool"
        }
      ],
      "payable": false,
      "stateMutability": "view",
      "type": "function"
    },
    {
      "constant": true,
      "inputs": [],
      "name": "numChoices",
      "outputs": [
        {
          "name": "",
          "type": "uint256"
        }
      ],
      "payable": false,
      "stateMutability": "view",
      "type": "function"
    },
    {
      "constant": true,
      "inputs": [],
      "name": "state",
      "outputs": [
        {
          "name": "",
          "type": "uint8"
        }
      ],
      "payable": false,
      "stateMutability": "view",
      "type": "function"
    },
    {
      "inputs": [
        {
          "name": "numProposals",
          "type": "uint8"
        }
      ],
      "payable": false,
      "stateMutability": "nonpayable",
      "type": "constructor"
    },
    {
      "constant": false,
      "inputs": [
        {
          "name": "shareholder",
          "type": "address"
        },
        {
          "name": "numSharesOwned",
          "type": "uint256"
        }
      ],
      "name": "registerShareholder",
      "outputs": [],
      "payable": false,
      "stateMutability": "nonpayable",
      "type": "function"
    },
    {
      "constant": false,
      "inputs": [
        {
          "name": "mode",
          "type": "uint8"
        }
      ],
      "name": "setVotingMode",
      "outputs": [],
      "payable": false,
      "stateMutability": "nonpayable",
      "type": "function"
    },
    {
      "constant": false,
      "inputs": [
        {
          "name": "howLong",
          "type": "uint8"
        },
        {
          "name": "unit",
          "type": "uint8"
        }
      ],
      "name": "setVoteTimeline",
      "outputs": [],
      "payable": false,
      "stateMutability": "nonpayable",
      "type": "function"
    },
    {
      "constant": false,
      "inputs": [],
      "name": "beginVoting",
      "outputs": [],
      "payable": false,
      "stateMutability": "nonpayable",
      "type": "function"
    },
    {
      "constant": false,
      "inputs": [],
      "name": "endVoting",
      "outputs": [],
      "payable": false,
      "stateMutability": "nonpayable",
      "type": "function"
    },
    {
      "constant": false,
      "inputs": [],
      "name": "countVotes",
      "outputs": [],
      "payable": false,
      "stateMutability": "nonpayable",
      "type": "function"
    },
    {
      "constant": false,
      "inputs": [],
      "name": "releaseWinner",
      "outputs": [],
      "payable": false,
      "stateMutability": "nonpayable",
      "type": "function"
    },
    {
      "constant": false,
      "inputs": [
        {
          "name": "toProposal",
          "type": "uint8"
        }
      ],
      "name": "singleVote",
      "outputs": [],
      "payable": false,
      "stateMutability": "nonpayable",
      "type": "function"
    },
    {
      "constant": false,
      "inputs": [
        {
          "name": "toProposal",
          "type": "uint8"
        },
        {
          "name": "numVotes",
          "type": "uint256"
        }
      ],
      "name": "allocateVotesByNumber",
      "outputs": [],
      "payable": false,
      "stateMutability": "nonpayable",
      "type": "function"
    },
    {
      "constant": false,
      "inputs": [
        {
          "name": "toProposal",
          "type": "uint8"
        },
        {
          "name": "percentage",
          "type": "uint8"
        }
      ],
      "name": "allocateVotesByPercentage",
      "outputs": [],
      "payable": false,
      "stateMutability": "nonpayable",
      "type": "function"
    },
    {
      "constant": true,
      "inputs": [],
      "name": "getNumRemainingVotes",
      "outputs": [
        {
          "name": "",
          "type": "uint256"
        }
      ],
      "payable": false,
      "stateMutability": "view",
      "type": "function"
    },
    {
      "constant": true,
      "inputs": [],
      "name": "getWinner",
      "outputs": [
        {
          "name": "",
          "type": "uint256"
        }
      ],
      "payable": false,
      "stateMutability": "view",
      "type": "function"
    },
    {
      "constant": true,
      "inputs": [],
      "name": "isChairperson",
      "outputs": [
        {
          "name": "",
          "type": "bool"
        }
      ],
      "payable": false,
      "stateMutability": "view",
      "type": "function"
    }
  ],
  "bytecode": "0x60806040526040518060400160405280600b81526020017f48656c6c6f20576f726c640000000000000000000000000000000000000000008152506000908051906020019062000051929190620001d3565b503480156200005f57600080fd5b506040516020806200275e833981018060405260208110156200008157600080fd5b810190808051906020019092919050505060018160ff1611620000f0576040517f08c379a00000000000000000000000000000000000000000000000000000000081526004018080602001828103825260308152602001806200272e6030913960400191505060405180910390fd5b33600160006101000a81548173ffffffffffffffffffffffffffffffffffffffff021916908373ffffffffffffffffffffffffffffffffffffffff1602179055508060ff166004816200014491906200025a565b506001600560006101000a81548160ff021916908360048111156200016557fe5b02179055506002600760006101000a81548160ff021916908360028111156200018a57fe5b0217905550600060088190555060006009819055506000600b60006101000a81548160ff0219169083151502179055508060ff16600681905550600060038190555050620002db565b828054600181600116156101000203166002900490600052602060002090601f016020900481019282601f106200021657805160ff191683800117855562000247565b8280016001018555821562000247579182015b828111156200024657825182559160200191906001019062000229565b5b50905062000256919062000289565b5090565b8154818355818111156200028457818360005260206000209182019101620002839190620002b1565b5b505050565b620002ae91905b80821115620002aa57600081600090555060010162000290565b5090565b90565b620002d891905b80821115620002d45760008082016000905550600101620002b8565b5090565b90565b61244380620002eb6000396000f3fe608060405234801561001057600080fd5b506004361061012c5760003560e01c8063a9092c11116100ad578063c19d93fb11610071578063c19d93fb146103d9578063c3403ddf14610405578063d267ea521461040f578063d28443111461044d578063e16f1eed1461046b5761012c565b8063a9092c111461031b578063afafa0cf14610339578063b422ab4014610387578063b647990a146103c5578063b830a3bc146103cf5761012c565b80634e06634c116100f45780634e06634c1461024d578063671b08741461027e5780638d382812146102a05780638e7ea5b2146102c257806395559a50146102e05761012c565b8063036ee85014610131578063132002fc1461014f57806323d071881461016d578063492bfa18146101995780634d5bc77c1461021c575b600080fd5b610139610475565b6040518082815260200191505060405180910390f35b61015761047b565b6040518082815260200191505060405180910390f35b610175610481565b6040518082600281111561018557fe5b60ff16815260200191505060405180910390f35b6101a1610494565b6040518080602001828103825283818151815260200191508051906020019080838360005b838110156101e15780820151818401526020810190506101c6565b50505050905090810190601f16801561020e5780820380516001836020036101000a031916815260200191505b509250505060405180910390f35b61024b6004803603602081101561023257600080fd5b81019080803560ff169060200190929190505050610532565b005b61027c6004803603602081101561026357600080fd5b81019080803560ff1690602001909291905050506108e0565b005b610286610a38565b604051808215151515815260200191505060405180910390f35b6102a8610a90565b604051808215151515815260200191505060405180910390f35b6102ca610aa3565b6040518082815260200191505060405180910390f35b610319600480360360408110156102f657600080fd5b81019080803560ff16906020019092919080359060200190929190505050610ae1565b005b610323610ef7565b6040518082815260200191505060405180910390f35b6103856004803603604081101561034f57600080fd5b81019080803573ffffffffffffffffffffffffffffffffffffffff16906020019092919080359060200190929190505050610efd565b005b6103c36004803603604081101561039d57600080fd5b81019080803560ff169060200190929190803560ff1690602001909291905050506111aa565b005b6103cd61169e565b005b6103d7611820565b005b6103e1611a7d565b604051808260048111156103f157fe5b60ff16815260200191505060405180910390f35b61040d611a90565b005b61044b6004803603604081101561042557600080fd5b81019080803560ff169060200190929190803560ff169060200190929190505050611bad565b005b610455611e37565b6040518082815260200191505060405180910390f35b610473611fcf565b005b60085481565b60095481565b600760009054906101000a900460ff1681565b60008054600181600116156101000203166002900480601f01602080910402602001604051908101604052809291908181526020018280546001816001161561010002031660029004801561052a5780601f106104ff5761010080835404028352916020019161052a565b820191906000526020600020905b81548152906001019060200180831161050d57829003601f168201915b505050505081565b6008544211156105aa576040517f08c379a000000000000000000000000000000000000000000000000000000000815260040180806020018281038252601b8152602001807f566f74696e6720646561646c696e65206861732070617373656421000000000081525060200191505060405180910390fd5b600260003373ffffffffffffffffffffffffffffffffffffffff1673ffffffffffffffffffffffffffffffffffffffff16815260200190815260200160002060010160009054906101000a900460ff1661066c576040517f08c379a000000000000000000000000000000000000000000000000000000000815260040180806020018281038252601b8152602001807f5368617265686f6c646572206e6f7420726567697374657265642e000000000081525060200191505060405180910390fd5b600280600481111561067a57fe5b600560009054906101000a900460ff16600481111561069557fe5b1461069f57600080fd5b8160ff16600081101580156106b5575060065481105b610727576040517f08c379a000000000000000000000000000000000000000000000000000000000815260040180806020018281038252601e8152602001807f5468657265206e6f742074686174206d616e792070726f706f73616c732e000081525060200191505060405180910390fd5b600180600281111561073557fe5b600760009054906101000a900460ff16600281111561075057fe5b146107a6576040517f08c379a000000000000000000000000000000000000000000000000000000000815260040180806020018281038252604e815260200180612303604e913960600191505060405180910390fd5b336000600260008373ffffffffffffffffffffffffffffffffffffffff1673ffffffffffffffffffffffffffffffffffffffff168152602001908152602001600020600001541161085f576040517f08c379a000000000000000000000000000000000000000000000000000000000815260040180806020018281038252601f8152602001807f596f752068617665207573656420616c6c206f6620796f757220766f7465730081525060200191505060405180910390fd5b6000600260003373ffffffffffffffffffffffffffffffffffffffff1673ffffffffffffffffffffffffffffffffffffffff1681526020019081526020016000209050600160048760ff16815481106108b457fe5b906000526020600020016000016000828254019250508190555060008160000181905550505050505050565b600160009054906101000a900473ffffffffffffffffffffffffffffffffffffffff1673ffffffffffffffffffffffffffffffffffffffff163373ffffffffffffffffffffffffffffffffffffffff16146109a3576040517f08c379a000000000000000000000000000000000000000000000000000000000815260040180806020018281038252601b8152602001807f596f7520617265206e6f7420746865204368616972706572736f6e000000000081525060200191505060405180910390fd5b6002808111156109af57fe5b8160028111156109bb57fe5b1415610a12576040517f08c379a00000000000000000000000000000000000000000000000000000000081526004018080602001828103825260238152602001806122896023913960400191505060405180910390fd5b80600760006101000a81548160ff02191690836002811115610a3057fe5b021790555050565b6000600160009054906101000a900473ffffffffffffffffffffffffffffffffffffffff1673ffffffffffffffffffffffffffffffffffffffff163373ffffffffffffffffffffffffffffffffffffffff1614905090565b600b60009054906101000a900460ff1681565b60006004806004811115610ab357fe5b600560009054906101000a900460ff166004811115610ace57fe5b14610ad857600080fd5b600a5491505090565b600854421115610b59576040517f08c379a000000000000000000000000000000000000000000000000000000000815260040180806020018281038252601b8152602001807f566f74696e6720646561646c696e65206861732070617373656421000000000081525060200191505060405180910390fd5b600260003373ffffffffffffffffffffffffffffffffffffffff1673ffffffffffffffffffffffffffffffffffffffff16815260200190815260200160002060010160009054906101000a900460ff16610c1b576040517f08c379a000000000000000000000000000000000000000000000000000000000815260040180806020018281038252601b8152602001807f5368617265686f6c646572206e6f7420726567697374657265642e000000000081525060200191505060405180910390fd5b6002806004811115610c2957fe5b600560009054906101000a900460ff166004811115610c4457fe5b14610c4e57600080fd5b8260ff1660008110158015610c64575060065481105b610cd6576040517f08c379a000000000000000000000000000000000000000000000000000000000815260040180806020018281038252601e8152602001807f5468657265206e6f742074686174206d616e792070726f706f73616c732e000081525060200191505060405180910390fd5b6000806002811115610ce457fe5b600760009054906101000a900460ff166002811115610cff57fe5b14610d55576040517f08c379a000000000000000000000000000000000000000000000000000000000815260040180806020018281038252604e815260200180612303604e913960600191505060405180910390fd5b336000600260008373ffffffffffffffffffffffffffffffffffffffff1673ffffffffffffffffffffffffffffffffffffffff1681526020019081526020016000206000015411610e0e576040517f08c379a000000000000000000000000000000000000000000000000000000000815260040180806020018281038252601f8152602001807f596f752068617665207573656420616c6c206f6620796f757220766f7465730081525060200191505060405180910390fd5b6000600260003373ffffffffffffffffffffffffffffffffffffffff1673ffffffffffffffffffffffffffffffffffffffff16815260200190815260200160002090506000868260000154011015610eb1576040517f08c379a00000000000000000000000000000000000000000000000000000000081526004018080602001828103825260278152602001806122ac6027913960400191505060405180910390fd5b8560048860ff1681548110610ec257fe5b906000526020600020016000016000828254019250508190555085816000016000828254039250508190555050505050505050565b60065481565b600160009054906101000a900473ffffffffffffffffffffffffffffffffffffffff1673ffffffffffffffffffffffffffffffffffffffff163373ffffffffffffffffffffffffffffffffffffffff1614610fc0576040517f08c379a000000000000000000000000000000000000000000000000000000000815260040180806020018281038252601b8152602001807f596f7520617265206e6f7420746865204368616972706572736f6e000000000081525060200191505060405180910390fd5b6001806004811115610fce57fe5b600560009054906101000a900460ff166004811115610fe957fe5b14610ff357600080fd5b600260008473ffffffffffffffffffffffffffffffffffffffff1673ffffffffffffffffffffffffffffffffffffffff16815260200190815260200160002060010160009054906101000a900460ff1615611099576040517f08c379a000000000000000000000000000000000000000000000000000000000815260040180806020018281038252602d8152602001806123eb602d913960400191505060405180910390fd5b600082116110f2576040517f08c379a00000000000000000000000000000000000000000000000000000000081526004018080602001828103825260308152602001806122d36030913960400191505060405180910390fd5b6001600260008573ffffffffffffffffffffffffffffffffffffffff1673ffffffffffffffffffffffffffffffffffffffff16815260200190815260200160002060010160006101000a81548160ff02191690831515021790555081600260008573ffffffffffffffffffffffffffffffffffffffff1673ffffffffffffffffffffffffffffffffffffffff168152602001908152602001600020600001819055506001600360008282540192505081905550505050565b600854421115611222576040517f08c379a000000000000000000000000000000000000000000000000000000000815260040180806020018281038252601b8152602001807f566f74696e6720646561646c696e65206861732070617373656421000000000081525060200191505060405180910390fd5b600260003373ffffffffffffffffffffffffffffffffffffffff1673ffffffffffffffffffffffffffffffffffffffff16815260200190815260200160002060010160009054906101000a900460ff166112e4576040517f08c379a000000000000000000000000000000000000000000000000000000000815260040180806020018281038252601b8152602001807f5368617265686f6c646572206e6f7420726567697374657265642e000000000081525060200191505060405180910390fd5b60028060048111156112f257fe5b600560009054906101000a900460ff16600481111561130d57fe5b1461131757600080fd5b8260ff166000811015801561132d575060065481105b61139f576040517f08c379a000000000000000000000000000000000000000000000000000000000815260040180806020018281038252601e8152602001807f5468657265206e6f742074686174206d616e792070726f706f73616c732e000081525060200191505060405180910390fd5b60008060028111156113ad57fe5b600760009054906101000a900460ff1660028111156113c857fe5b1461141e576040517f08c379a000000000000000000000000000000000000000000000000000000000815260040180806020018281038252604e815260200180612303604e913960600191505060405180910390fd5b336000600260008373ffffffffffffffffffffffffffffffffffffffff1673ffffffffffffffffffffffffffffffffffffffff16815260200190815260200160002060000154116114d7576040517f08c379a000000000000000000000000000000000000000000000000000000000815260040180806020018281038252601f8152602001807f596f752068617665207573656420616c6c206f6620796f757220766f7465730081525060200191505060405180910390fd5b60008560ff161180156114ee575060648560ff1611155b611543576040517f08c379a000000000000000000000000000000000000000000000000000000000815260040180806020018281038252603881526020018061237f6038913960400191505060405180910390fd5b6000600260003373ffffffffffffffffffffffffffffffffffffffff1673ffffffffffffffffffffffffffffffffffffffff1681526020019081526020016000209050600060648760ff168360000154028161159b57fe5b049050600081116115f7576040517f08c379a000000000000000000000000000000000000000000000000000000000815260040180806020018281038252602e815260200180612201602e913960400191505060405180910390fd5b6000818360000154011015611657576040517f08c379a000000000000000000000000000000000000000000000000000000000815260040180806020018281038252603b81526020018061216e603b913960400191505060405180910390fd5b8060048960ff168154811061166857fe5b90600052602060002001600001600082825401925050819055508082600001600082825403925050819055505050505050505050565b600160009054906101000a900473ffffffffffffffffffffffffffffffffffffffff1673ffffffffffffffffffffffffffffffffffffffff163373ffffffffffffffffffffffffffffffffffffffff1614611761576040517f08c379a000000000000000000000000000000000000000000000000000000000815260040180806020018281038252601b8152602001807f596f7520617265206e6f7420746865204368616972706572736f6e000000000081525060200191505060405180910390fd5b600380600481111561176f57fe5b600560009054906101000a900460ff16600481111561178a57fe5b1461179457600080fd5b600080905060008090505b6004805490508110156118005781600482815481106117ba57fe5b906000526020600020016000015411156117f357600481815481106117db57fe5b9060005260206000200160000154915080600a819055505b808060010191505061179f565b506001600b60006101000a81548160ff0219169083151502179055505050565b600160009054906101000a900473ffffffffffffffffffffffffffffffffffffffff1673ffffffffffffffffffffffffffffffffffffffff163373ffffffffffffffffffffffffffffffffffffffff16146118e3576040517f08c379a000000000000000000000000000000000000000000000000000000000815260040180806020018281038252601b8152602001807f596f7520617265206e6f7420746865204368616972706572736f6e000000000081525060200191505060405180910390fd5b60018060048111156118f157fe5b600560009054906101000a900460ff16600481111561190c57fe5b1461191657600080fd5b600060035411611971576040517f08c379a00000000000000000000000000000000000000000000000000000000081526004018080602001828103825260258152602001806122646025913960400191505060405180910390fd5b60028081111561197d57fe5b600760009054906101000a900460ff16600281111561199857fe5b14156119ef576040517f08c379a000000000000000000000000000000000000000000000000000000000815260040180806020018281038252602e815260200180612351602e913960400191505060405180910390fd5b60006009541415611a4b576040517f08c379a00000000000000000000000000000000000000000000000000000000081526004018080602001828103825260348152602001806123b76034913960400191505060405180910390fd5b60095442016008819055506002600560006101000a81548160ff02191690836004811115611a7557fe5b021790555050565b600560009054906101000a900460ff1681565b600160009054906101000a900473ffffffffffffffffffffffffffffffffffffffff1673ffffffffffffffffffffffffffffffffffffffff163373ffffffffffffffffffffffffffffffffffffffff1614611b53576040517f08c379a000000000000000000000000000000000000000000000000000000000815260040180806020018281038252601b8152602001807f596f7520617265206e6f7420746865204368616972706572736f6e000000000081525060200191505060405180910390fd5b6002806004811115611b6157fe5b600560009054906101000a900460ff166004811115611b7c57fe5b14611b8657600080fd5b6003600560006101000a81548160ff02191690836004811115611ba557fe5b021790555050565b600160009054906101000a900473ffffffffffffffffffffffffffffffffffffffff1673ffffffffffffffffffffffffffffffffffffffff163373ffffffffffffffffffffffffffffffffffffffff1614611c70576040517f08c379a000000000000000000000000000000000000000000000000000000000815260040180806020018281038252601b8152602001807f596f7520617265206e6f7420746865204368616972706572736f6e000000000081525060200191505060405180910390fd5b6001806004811115611c7e57fe5b600560009054906101000a900460ff166004811115611c9957fe5b14611ca357600080fd5b60008360ff1611611d1c576040517f08c379a000000000000000000000000000000000000000000000000000000000815260040180806020018281038252601d8152602001807f416c706861206d757374206265206d6f7265207468616e207a65726f2e00000081525060200191505060405180910390fd5b60018260ff1610158015611d34575060058260ff1611155b611d89576040517f08c379a00000000000000000000000000000000000000000000000000000000081526004018080602001828103825260588152602001806121a96058913960600191505060405180910390fd5b60018260ff161415611dae5762093a808360ff160262ffffff16600981905550611e32565b60028260ff161415611dd357620151808360ff160262ffffff16600981905550611e31565b60038260ff161415611df657610e108360ff160261ffff16600981905550611e30565b60048260ff161415611e1457603c830260ff16600981905550611e2f565b60058260ff161415611e2e576001830260ff166009819055505b5b5b5b5b505050565b6000600260003373ffffffffffffffffffffffffffffffffffffffff1673ffffffffffffffffffffffffffffffffffffffff16815260200190815260200160002060010160009054906101000a900460ff16611efb576040517f08c379a000000000000000000000000000000000000000000000000000000000815260040180806020018281038252601b8152602001807f5368617265686f6c646572206e6f7420726567697374657265642e000000000081525060200191505060405180910390fd5b611f03612151565b600260003373ffffffffffffffffffffffffffffffffffffffff1673ffffffffffffffffffffffffffffffffffffffff168152602001908152602001600020604051806040016040529081600082015481526020016001820160009054906101000a900460ff1615151515815250509050600081600001511415611f8b576000915050611fcc565b60016002811115611f9857fe5b600760009054906101000a900460ff166002811115611fb357fe5b1415611fc3576001915050611fcc565b80600001519150505b90565b600160009054906101000a900473ffffffffffffffffffffffffffffffffffffffff1673ffffffffffffffffffffffffffffffffffffffff163373ffffffffffffffffffffffffffffffffffffffff1614612092576040517f08c379a000000000000000000000000000000000000000000000000000000000815260040180806020018281038252601b8152602001807f596f7520617265206e6f7420746865204368616972706572736f6e000000000081525060200191505060405180910390fd5b60038060048111156120a057fe5b600560009054906101000a900460ff1660048111156120bb57fe5b146120c557600080fd5b600b60009054906101000a900460ff1661212a576040517f08c379a000000000000000000000000000000000000000000000000000000000815260040180806020018281038252603581526020018061222f6035913960400191505060405180910390fd5b6004600560006101000a81548160ff0219169083600481111561214957fe5b021790555050565b604051806040016040528060008152602001600015158152509056fe596f752073656e74206d6f726520766f746573202f206c61726765722070657263656e74616765207468616e20796f752068617665206c6566742e43616e6e6f74206861766520604e6f745365746020617320612074696d6520756e69742e20313a207765656b732c20323a20646179732c20333a20686f7572732c20343a206d696e757465732c20353a207365636f6e647350657263656e7461676520746f6f20736d616c6c2e204e6f20766f746573206265696e672073656e74206f75742e57696e6e657220686173206e6f74206265656e2073656c6563746564207965742e2052756e2060636f756e74566f7465732829602e4e6f207368617265686f6c646572732068617665206265656e20726567697374657265642e43616e6e6f742073657420766f74696e67206d6f646520746f20604e6f74536574602e596f752073656e74206d6f726520766f746573207468616e20796f752068617665206c6566742e41207368617265686f6c6465722073686f756c642068617665206d6f7265207468616e207a65726f207368617265732e596f752061726520766f74696e6720696e206120646966666572656e7420766f74696e67206d6f64652e20506c656173652075736520616e6f7468657220766f74696e672066756e6374696f6e2e566f74696e67206d6f6465206e6f74207365742e2052756e2060736574566f74696e674d6f6465282e2e2e29602e50657263656e74616765206d75737420626520612076616c69642070657263656e74616765206265747765656e203120616e64203130302e566f74696e6720646561646c696e65206e6f74207365742e2052756e2060736574566f746554696d656c696e65282e2e2e29602e54686973207368617265686f6c6465722068617320616c7265616479206265656e20726567697374657265642ea165627a7a72305820cf8cf641c9b5d0df274a4ac48042d7bc93389442b9430a68e577af5aad4166c900295468657265206d757374206265206d6f7265207468616e206f6e652070726f706f73616c20746f20766f7465206f6e2e",
  "source": "pragma solidity ^0.5.2;\n\ncontract ShBallot {\n      string public myString = \"Hello World\";\n\n    // DATA STRUCTURES\n    struct Shareholder {\n        uint numSharesOwned;\n        bool registered;\n    }\n\n    struct Proposal {\n        uint256 voteCount;\n    }\n\n    address chairperson;\n    mapping(address => Shareholder) shareholders;\n    uint numShareholders;\n    Proposal[] proposals;\n\n    enum Phase { Init, Regs, Vote, Done, Released }\n    enum VoteMode { OnePerShare, OneVote, NotSet }\n    \n    Phase public state;\n    uint public numChoices;\n    \n    VoteMode public votingMode;\n    uint public votingDeadline;\n    uint public votingDuration;\n    \n    uint winner;\n    bool public winnerSelected;\n\n    // MODIFIERS\n    modifier validPhase(Phase reqPhase) {\n        require(state == reqPhase);\n        _;\n    }\n\n    modifier validVoteMode(VoteMode mode) {\n        require(votingMode == mode, \"You are voting in a different voting mode. Please use another voting function.\");\n        _;\n    }\n\n    modifier shareholderRegistered() {\n        require(shareholders[msg.sender].registered, \"Shareholder not registered.\");\n        _;\n    }\n\n    modifier onlyChair() {\n        require(msg.sender == chairperson, \"You are not the Chairperson\");\n        _;\n    }\n\n    modifier onlyShareholder() {\n        require(msg.sender != chairperson, \"You are not a shareholder\");\n        _;\n    }\n\n    modifier beforeDeadline() {\n        require(now <= votingDeadline, \"Voting deadline has passed!\");\n        _;\n    }\n    \n    modifier validProposal(uint num) {\n        require(num >= 0 && num < numChoices, \"There not that many proposals.\");\n        _;\n    }\n    \n    modifier canStillVote(address toCheck) {\n        require(shareholders[toCheck].numSharesOwned > 0, \"You have used all of your votes\");\n        _;\n    }\n    \n    // CONSTRUCTOR\n    constructor (uint8 numProposals)\n        public\n    {\n        require(numProposals > 1, \"There must be more than one proposal to vote on.\");\n        chairperson = msg.sender;\n        proposals.length = numProposals;\n        state = Phase.Regs;\n        votingMode = VoteMode.NotSet;\n        votingDeadline = 0;\n        votingDuration = 0;\n        winnerSelected = false;\n        numChoices = numProposals;\n        numShareholders = 0;\n    }\n\n    //chairperson functions\n    function registerShareholder(address shareholder, uint numSharesOwned)\n        public\n        onlyChair\n        validPhase(Phase.Regs)\n    {\n        require(!shareholders[shareholder].registered, \"This shareholder has already been registered.\");\n        require(numSharesOwned > 0, \"A shareholder should have more than zero shares.\");\n        shareholders[shareholder].registered = true;\n        shareholders[shareholder].numSharesOwned = numSharesOwned;\n        numShareholders += 1;\n    }\n    \n    function setVotingMode(VoteMode mode)\n        public\n        onlyChair\n    {\n        require(mode != VoteMode.NotSet, \"Cannot set voting mode to `NotSet`.\");\n        votingMode = mode;\n    }\n    \n    function setVoteTimeline(uint8 howLong, uint8 unit)\n        public\n        onlyChair\n        validPhase(Phase.Regs)\n    {\n        require(howLong > 0, \"Alpha must be more than zero.\");\n        require(unit>=1 && unit<=5, \"Cannot have `NotSet` as a time unit. 1: weeks, 2: days, 3: hours, 4: minutes, 5: seconds\");\n        if (unit == 1) {\n            votingDuration = howLong * 1 weeks;\n        } else if (unit == 2) {\n            votingDuration = howLong * 1 days;\n        } else if (unit == 3) {\n            votingDuration = howLong * 1 hours;\n        } else if (unit == 4) {\n            votingDuration = howLong * 1 minutes;\n        } else if (unit == 5) {\n            votingDuration = howLong * 1 seconds;\n        }\n    }\n    \n    function beginVoting()\n        public\n        onlyChair\n        validPhase(Phase.Regs)\n    {\n        require(numShareholders > 0, \"No shareholders have been registered.\");\n        require(votingMode != VoteMode.NotSet, \"Voting mode not set. Run `setVotingMode(...)`.\");\n        require(votingDuration != 0, \"Voting deadline not set. Run `setVoteTimeline(...)`.\");\n        votingDeadline = now + votingDuration;\n        state = Phase.Vote;\n    }\n    \n    function endVoting()\n        public\n        onlyChair\n        validPhase(Phase.Vote)\n    {\n        state = Phase.Done;\n    }\n    \n    function countVotes()\n        public\n        onlyChair\n        validPhase(Phase.Done)\n    {\n        uint winningVoteCount = 0;\n        for (uint prop = 0; prop < proposals.length; prop++)\n            if (proposals[prop].voteCount > winningVoteCount) {\n                winningVoteCount = proposals[prop].voteCount;\n                winner = prop;\n            }\n        winnerSelected = true;\n    }\n    \n    function releaseWinner()\n        public\n        onlyChair\n        validPhase(Phase.Done)\n    {\n        require(winnerSelected, \"Winner has not been selected yet. Run `countVotes()`.\");\n        state = Phase.Released;\n    }\n    \n    //shareholder functions\n    function singleVote(uint8 toProposal)\n        public\n        beforeDeadline\n        shareholderRegistered\n        validPhase(Phase.Vote)\n        validProposal(toProposal)\n        validVoteMode(VoteMode.OneVote)\n        canStillVote(msg.sender)\n    {\n        Shareholder storage shareholder = shareholders[msg.sender];\n        proposals[toProposal].voteCount += 1;\n        shareholder.numSharesOwned = 0; \n    }\n     \n    function allocateVotesByNumber(uint8 toProposal, uint numVotes)\n        public\n        beforeDeadline\n        shareholderRegistered\n        validPhase(Phase.Vote)\n        validProposal(toProposal)\n        validVoteMode(VoteMode.OnePerShare)\n        canStillVote(msg.sender)\n    {\n        Shareholder storage shareholder = shareholders[msg.sender];\n        require(shareholder.numSharesOwned + numVotes >= 0, \"You sent more votes than you have left.\");\n        proposals[toProposal].voteCount += numVotes;\n        shareholder.numSharesOwned -= numVotes;\n    }\n     \n    function allocateVotesByPercentage(uint8 toProposal, uint8 percentage)\n        public\n        beforeDeadline\n        shareholderRegistered\n        validPhase(Phase.Vote)\n        validProposal(toProposal)\n        validVoteMode(VoteMode.OnePerShare)\n        canStillVote(msg.sender)\n    {\n        require(percentage > 0 && percentage <= 100, \"Percentage must be a valid percentage between 1 and 100.\");\n        Shareholder storage shareholder = shareholders[msg.sender];\n        uint numVotes = (shareholder.numSharesOwned * percentage) / 100;\n        require(numVotes > 0, \"Percentage too small. No votes being sent out.\");\n        require(shareholder.numSharesOwned + numVotes >= 0, \"You sent more votes / larger percentage than you have left.\");\n        proposals[toProposal].voteCount += numVotes;\n        shareholder.numSharesOwned -= numVotes;\n    }\n    \n    function getNumRemainingVotes()\n        public\n        view\n        shareholderRegistered\n        returns(uint)\n    {\n        Shareholder memory shareholder = shareholders[msg.sender];\n        if (shareholder.numSharesOwned == 0) {\n            return 0;\n        } else {\n            if (votingMode == VoteMode.OneVote) {\n                return 1;\n            }\n            return shareholder.numSharesOwned;\n        }\n    }\n    \n    function getWinner()\n        public\n        view\n        validPhase(Phase.Released)\n        returns (uint)\n    {\n        return winner;\n    }\n\n    function isChairperson()\n        public\n        view\n        returns (bool)\n    {\n        return msg.sender == chairperson;\n    }\n}\n",
  "sourcePath": "/Users/hansbas/Documents/University at Buffalo/2019-2020/Fall 2019/CSE 426/shareholder-ballot/ballot-contract/contracts/ShBallot.sol",
  "compiler": {
    "name": "solc",
    "version": "0.5.8+commit.23d335f2.Emscripten.clang"
  },
  "schemaVersion": "3.0.16",
  "updatedAt": "2019-10-29T05:12:12.273Z",
  "devdoc": {
    "methods": {}
  },
  "userdoc": {
    "methods": {}
  }
}