{
  "contractName": "ShBallot",
  "abi": [
    {
      "constant": true,
      "inputs": [],
      "name": "votingDeadline",
      "outputs": [
        {
          "name": "",
          "type": "uint256"
        }
      ],
      "payable": false,
      "stateMutability": "view",
      "type": "function"
    },
    {
      "constant": true,
      "inputs": [],
      "name": "votingDuration",
      "outputs": [
        {
          "name": "",
          "type": "uint256"
        }
      ],
      "payable": false,
      "stateMutability": "view",
      "type": "function"
    },
    {
      "constant": true,
      "inputs": [],
      "name": "votingMode",
      "outputs": [
        {
          "name": "",
          "type": "uint8"
        }
      ],
      "payable": false,
      "stateMutability": "view",
      "type": "function"
    },
    {
      "constant": true,
      "inputs": [],
      "name": "winnerSelected",
      "outputs": [
        {
          "name": "",
          "type": "bool"
        }
      ],
      "payable": false,
      "stateMutability": "view",
      "type": "function"
    },
    {
      "constant": true,
      "inputs": [],
      "name": "numChoices",
      "outputs": [
        {
          "name": "",
          "type": "uint256"
        }
      ],
      "payable": false,
      "stateMutability": "view",
      "type": "function"
    },
    {
      "constant": true,
      "inputs": [],
      "name": "state",
      "outputs": [
        {
          "name": "",
          "type": "uint8"
        }
      ],
      "payable": false,
      "stateMutability": "view",
      "type": "function"
    },
    {
      "inputs": [
        {
          "name": "numProposals",
          "type": "uint8"
        }
      ],
      "payable": false,
      "stateMutability": "nonpayable",
      "type": "constructor"
    },
    {
      "constant": false,
      "inputs": [
        {
          "name": "shareholder",
          "type": "address"
        },
        {
          "name": "numSharesOwned",
          "type": "uint256"
        }
      ],
      "name": "registerShareholder",
      "outputs": [],
      "payable": false,
      "stateMutability": "nonpayable",
      "type": "function"
    },
    {
      "constant": false,
      "inputs": [
        {
          "name": "mode",
          "type": "uint8"
        }
      ],
      "name": "setVotingMode",
      "outputs": [],
      "payable": false,
      "stateMutability": "nonpayable",
      "type": "function"
    },
    {
      "constant": false,
      "inputs": [
        {
          "name": "howLong",
          "type": "uint8"
        },
        {
          "name": "unit",
          "type": "uint8"
        }
      ],
      "name": "setVoteTimeline",
      "outputs": [],
      "payable": false,
      "stateMutability": "nonpayable",
      "type": "function"
    },
    {
      "constant": false,
      "inputs": [],
      "name": "beginVoting",
      "outputs": [],
      "payable": false,
      "stateMutability": "nonpayable",
      "type": "function"
    },
    {
      "constant": false,
      "inputs": [],
      "name": "endVoting",
      "outputs": [],
      "payable": false,
      "stateMutability": "nonpayable",
      "type": "function"
    },
    {
      "constant": false,
      "inputs": [],
      "name": "countVotes",
      "outputs": [],
      "payable": false,
      "stateMutability": "nonpayable",
      "type": "function"
    },
    {
      "constant": false,
      "inputs": [],
      "name": "releaseWinner",
      "outputs": [],
      "payable": false,
      "stateMutability": "nonpayable",
      "type": "function"
    },
    {
      "constant": false,
      "inputs": [
        {
          "name": "toProposal",
          "type": "uint8"
        }
      ],
      "name": "singleVote",
      "outputs": [],
      "payable": false,
      "stateMutability": "nonpayable",
      "type": "function"
    },
    {
      "constant": false,
      "inputs": [
        {
          "name": "toProposal",
          "type": "uint8"
        },
        {
          "name": "numVotes",
          "type": "uint256"
        }
      ],
      "name": "allocateVotesByNumber",
      "outputs": [],
      "payable": false,
      "stateMutability": "nonpayable",
      "type": "function"
    },
    {
      "constant": false,
      "inputs": [
        {
          "name": "toProposal",
          "type": "uint8"
        },
        {
          "name": "percentage",
          "type": "uint8"
        }
      ],
      "name": "allocateVotesByPercentage",
      "outputs": [],
      "payable": false,
      "stateMutability": "nonpayable",
      "type": "function"
    },
    {
      "constant": true,
      "inputs": [],
      "name": "getNumRemainingVotes",
      "outputs": [
        {
          "name": "",
          "type": "uint256"
        }
      ],
      "payable": false,
      "stateMutability": "view",
      "type": "function"
    },
    {
      "constant": true,
      "inputs": [],
      "name": "getWinner",
      "outputs": [
        {
          "name": "",
          "type": "uint256"
        }
      ],
      "payable": false,
      "stateMutability": "view",
      "type": "function"
    },
    {
      "constant": true,
      "inputs": [],
      "name": "isChairperson",
      "outputs": [
        {
          "name": "",
          "type": "bool"
        }
      ],
      "payable": false,
      "stateMutability": "view",
      "type": "function"
    }
  ],
  "bytecode": "0x60806040523480156200001157600080fd5b506040516020806200291d833981018060405260208110156200003357600080fd5b810190808051906020019092919050505060018160ff1611620000a2576040517f08c379a0000000000000000000000000000000000000000000000000000000008152600401808060200182810382526030815260200180620028ed6030913960400191505060405180910390fd5b336000806101000a81548173ffffffffffffffffffffffffffffffffffffffff021916908373ffffffffffffffffffffffffffffffffffffffff1602179055508060ff16600381620000f5919062000184565b506001600460006101000a81548160ff021916908360048111156200011657fe5b02179055506002600660006101000a81548160ff021916908360028111156200013b57fe5b0217905550600060078190555060006008819055506000600a60006101000a81548160ff0219169083151502179055508060ff16600581905550600060028190555050620001dd565b815481835581811115620001ae57818360005260206000209182019101620001ad9190620001b3565b5b505050565b620001da91905b80821115620001d65760008082016000905550600101620001ba565b5090565b90565b61270080620001ed6000396000f3fe608060405234801561001057600080fd5b50600436106101215760003560e01c8063a9092c11116100ad578063c19d93fb11610071578063c19d93fb1461034b578063c3403ddf14610377578063d267ea5214610381578063d2844311146103bf578063e16f1eed146103dd57610121565b8063a9092c111461028d578063afafa0cf146102ab578063b422ab40146102f9578063b647990a14610337578063b830a3bc1461034157610121565b80634e06634c116100f45780634e06634c146101bf578063671b0874146101f05780638d382812146102125780638e7ea5b21461023457806395559a501461025257610121565b8063036ee85014610126578063132002fc1461014457806323d07188146101625780634d5bc77c1461018e575b600080fd5b61012e6103e7565b6040518082815260200191505060405180910390f35b61014c6103ed565b6040518082815260200191505060405180910390f35b61016a6103f3565b6040518082600281111561017a57fe5b60ff16815260200191505060405180910390f35b6101bd600480360360208110156101a457600080fd5b81019080803560ff169060200190929190505050610406565b005b6101ee600480360360208110156101d557600080fd5b81019080803560ff16906020019092919050505061081d565b005b6101f8610974565b604051808215151515815260200191505060405180910390f35b61021a6109cb565b604051808215151515815260200191505060405180910390f35b61023c6109de565b6040518082815260200191505060405180910390f35b61028b6004803603604081101561026857600080fd5b81019080803560ff16906020019092919080359060200190929190505050610a85565b005b610295610f01565b6040518082815260200191505060405180910390f35b6102f7600480360360408110156102c157600080fd5b81019080803573ffffffffffffffffffffffffffffffffffffffff16906020019092919080359060200190929190505050610f07565b005b6103356004803603604081101561030f57600080fd5b81019080803560ff169060200190929190803560ff16906020019092919050505061121b565b005b61033f611778565b005b610349611962565b005b610353611c27565b6040518082600481111561036357fe5b60ff16815260200191505060405180910390f35b61037f611c3a565b005b6103bd6004803603604081101561039757600080fd5b81019080803560ff169060200190929190803560ff169060200190929190505050611dbf565b005b6103c76120b1565b6040518082815260200191505060405180910390f35b6103e5612249565b005b60075481565b60085481565b600660009054906101000a900460ff1681565b60075442111561047e576040517f08c379a000000000000000000000000000000000000000000000000000000000815260040180806020018281038252601b8152602001807f566f74696e6720646561646c696e65206861732070617373656421000000000081525060200191505060405180910390fd5b600160003373ffffffffffffffffffffffffffffffffffffffff1673ffffffffffffffffffffffffffffffffffffffff16815260200190815260200160002060010160009054906101000a900460ff16610540576040517f08c379a000000000000000000000000000000000000000000000000000000000815260040180806020018281038252601b8152602001807f5368617265686f6c646572206e6f7420726567697374657265642e000000000081525060200191505060405180910390fd5b600280600481111561054e57fe5b600460009054906101000a900460ff16600481111561056957fe5b146105dc576040517f08c379a000000000000000000000000000000000000000000000000000000000815260040180806020018281038252600d8152602001807f496e76616c69642070686173650000000000000000000000000000000000000081525060200191505060405180910390fd5b8160ff16600081101580156105f2575060055481105b610664576040517f08c379a000000000000000000000000000000000000000000000000000000000815260040180806020018281038252601e8152602001807f5468657265206e6f742074686174206d616e792070726f706f73616c732e000081525060200191505060405180910390fd5b600180600281111561067257fe5b600660009054906101000a900460ff16600281111561068d57fe5b146106e3576040517f08c379a000000000000000000000000000000000000000000000000000000000815260040180806020018281038252602a815260200180612510602a913960400191505060405180910390fd5b336000600160008373ffffffffffffffffffffffffffffffffffffffff1673ffffffffffffffffffffffffffffffffffffffff168152602001908152602001600020600001541161079c576040517f08c379a000000000000000000000000000000000000000000000000000000000815260040180806020018281038252601f8152602001807f596f752068617665207573656420616c6c206f6620796f757220766f7465730081525060200191505060405180910390fd5b6000600160003373ffffffffffffffffffffffffffffffffffffffff1673ffffffffffffffffffffffffffffffffffffffff1681526020019081526020016000209050600160038760ff16815481106107f157fe5b906000526020600020016000016000828254019250508190555060008160000181905550505050505050565b6000809054906101000a900473ffffffffffffffffffffffffffffffffffffffff1673ffffffffffffffffffffffffffffffffffffffff163373ffffffffffffffffffffffffffffffffffffffff16146108df576040517f08c379a000000000000000000000000000000000000000000000000000000000815260040180806020018281038252601b8152602001807f596f7520617265206e6f7420746865204368616972706572736f6e000000000081525060200191505060405180910390fd5b6002808111156108eb57fe5b8160028111156108f757fe5b141561094e576040517f08c379a00000000000000000000000000000000000000000000000000000000081526004018080602001828103825260238152602001806125946023913960400191505060405180910390fd5b80600660006101000a81548160ff0219169083600281111561096c57fe5b021790555050565b60008060009054906101000a900473ffffffffffffffffffffffffffffffffffffffff1673ffffffffffffffffffffffffffffffffffffffff163373ffffffffffffffffffffffffffffffffffffffff1614905090565b600a60009054906101000a900460ff1681565b600060048060048111156109ee57fe5b600460009054906101000a900460ff166004811115610a0957fe5b14610a7c576040517f08c379a000000000000000000000000000000000000000000000000000000000815260040180806020018281038252600d8152602001807f496e76616c69642070686173650000000000000000000000000000000000000081525060200191505060405180910390fd5b60095491505090565b600754421115610afd576040517f08c379a000000000000000000000000000000000000000000000000000000000815260040180806020018281038252601b8152602001807f566f74696e6720646561646c696e65206861732070617373656421000000000081525060200191505060405180910390fd5b600160003373ffffffffffffffffffffffffffffffffffffffff1673ffffffffffffffffffffffffffffffffffffffff16815260200190815260200160002060010160009054906101000a900460ff16610bbf576040517f08c379a000000000000000000000000000000000000000000000000000000000815260040180806020018281038252601b8152602001807f5368617265686f6c646572206e6f7420726567697374657265642e000000000081525060200191505060405180910390fd5b6002806004811115610bcd57fe5b600460009054906101000a900460ff166004811115610be857fe5b14610c5b576040517f08c379a000000000000000000000000000000000000000000000000000000000815260040180806020018281038252600d8152602001807f496e76616c69642070686173650000000000000000000000000000000000000081525060200191505060405180910390fd5b8260ff1660008110158015610c71575060055481105b610ce3576040517f08c379a000000000000000000000000000000000000000000000000000000000815260040180806020018281038252601e8152602001807f5468657265206e6f742074686174206d616e792070726f706f73616c732e000081525060200191505060405180910390fd5b6000806002811115610cf157fe5b600660009054906101000a900460ff166002811115610d0c57fe5b14610d62576040517f08c379a000000000000000000000000000000000000000000000000000000000815260040180806020018281038252602a815260200180612510602a913960400191505060405180910390fd5b336000600160008373ffffffffffffffffffffffffffffffffffffffff1673ffffffffffffffffffffffffffffffffffffffff1681526020019081526020016000206000015411610e1b576040517f08c379a000000000000000000000000000000000000000000000000000000000815260040180806020018281038252601f8152602001807f596f752068617665207573656420616c6c206f6620796f757220766f7465730081525060200191505060405180910390fd5b6000600160003373ffffffffffffffffffffffffffffffffffffffff1673ffffffffffffffffffffffffffffffffffffffff16815260200190815260200160002090508060000154861115610ebb576040517f08c379a00000000000000000000000000000000000000000000000000000000081526004018080602001828103825260278152602001806125b76027913960400191505060405180910390fd5b8560038860ff1681548110610ecc57fe5b906000526020600020016000016000828254019250508190555085816000016000828254039250508190555050505050505050565b60055481565b6000809054906101000a900473ffffffffffffffffffffffffffffffffffffffff1673ffffffffffffffffffffffffffffffffffffffff163373ffffffffffffffffffffffffffffffffffffffff1614610fc9576040517f08c379a000000000000000000000000000000000000000000000000000000000815260040180806020018281038252601b8152602001807f596f7520617265206e6f7420746865204368616972706572736f6e000000000081525060200191505060405180910390fd5b6001806004811115610fd757fe5b600460009054906101000a900460ff166004811115610ff257fe5b14611065576040517f08c379a000000000000000000000000000000000000000000000000000000000815260040180806020018281038252600d8152602001807f496e76616c69642070686173650000000000000000000000000000000000000081525060200191505060405180910390fd5b600160008473ffffffffffffffffffffffffffffffffffffffff1673ffffffffffffffffffffffffffffffffffffffff16815260200190815260200160002060010160009054906101000a900460ff161561110b576040517f08c379a000000000000000000000000000000000000000000000000000000000815260040180806020018281038252602d8152602001806126a8602d913960400191505060405180910390fd5b60008211611164576040517f08c379a00000000000000000000000000000000000000000000000000000000081526004018080602001828103825260308152602001806125de6030913960400191505060405180910390fd5b60018060008573ffffffffffffffffffffffffffffffffffffffff1673ffffffffffffffffffffffffffffffffffffffff16815260200190815260200160002060010160006101000a81548160ff02191690831515021790555081600160008573ffffffffffffffffffffffffffffffffffffffff1673ffffffffffffffffffffffffffffffffffffffff168152602001908152602001600020600001819055506001600260008282540192505081905550505050565b600754421115611293576040517f08c379a000000000000000000000000000000000000000000000000000000000815260040180806020018281038252601b8152602001807f566f74696e6720646561646c696e65206861732070617373656421000000000081525060200191505060405180910390fd5b600160003373ffffffffffffffffffffffffffffffffffffffff1673ffffffffffffffffffffffffffffffffffffffff16815260200190815260200160002060010160009054906101000a900460ff16611355576040517f08c379a000000000000000000000000000000000000000000000000000000000815260040180806020018281038252601b8152602001807f5368617265686f6c646572206e6f7420726567697374657265642e000000000081525060200191505060405180910390fd5b600280600481111561136357fe5b600460009054906101000a900460ff16600481111561137e57fe5b146113f1576040517f08c379a000000000000000000000000000000000000000000000000000000000815260040180806020018281038252600d8152602001807f496e76616c69642070686173650000000000000000000000000000000000000081525060200191505060405180910390fd5b8260ff1660008110158015611407575060055481105b611479576040517f08c379a000000000000000000000000000000000000000000000000000000000815260040180806020018281038252601e8152602001807f5468657265206e6f742074686174206d616e792070726f706f73616c732e000081525060200191505060405180910390fd5b600080600281111561148757fe5b600660009054906101000a900460ff1660028111156114a257fe5b146114f8576040517f08c379a000000000000000000000000000000000000000000000000000000000815260040180806020018281038252602a815260200180612510602a913960400191505060405180910390fd5b336000600160008373ffffffffffffffffffffffffffffffffffffffff1673ffffffffffffffffffffffffffffffffffffffff16815260200190815260200160002060000154116115b1576040517f08c379a000000000000000000000000000000000000000000000000000000000815260040180806020018281038252601f8152602001807f596f752068617665207573656420616c6c206f6620796f757220766f7465730081525060200191505060405180910390fd5b60008560ff161180156115c8575060648560ff1611155b61161d576040517f08c379a000000000000000000000000000000000000000000000000000000000815260040180806020018281038252603881526020018061263c6038913960400191505060405180910390fd5b6000600160003373ffffffffffffffffffffffffffffffffffffffff1673ffffffffffffffffffffffffffffffffffffffff1681526020019081526020016000209050600060648760ff168360000154028161167557fe5b049050600081116116d1576040517f08c379a000000000000000000000000000000000000000000000000000000000815260040180806020018281038252602e8152602001806124e2602e913960400191505060405180910390fd5b6000818360000154011015611731576040517f08c379a000000000000000000000000000000000000000000000000000000000815260040180806020018281038252603b81526020018061244f603b913960400191505060405180910390fd5b8060038960ff168154811061174257fe5b90600052602060002001600001600082825401925050819055508082600001600082825403925050819055505050505050505050565b6000809054906101000a900473ffffffffffffffffffffffffffffffffffffffff1673ffffffffffffffffffffffffffffffffffffffff163373ffffffffffffffffffffffffffffffffffffffff161461183a576040517f08c379a000000000000000000000000000000000000000000000000000000000815260040180806020018281038252601b8152602001807f596f7520617265206e6f7420746865204368616972706572736f6e000000000081525060200191505060405180910390fd5b600380600481111561184857fe5b600460009054906101000a900460ff16600481111561186357fe5b146118d6576040517f08c379a000000000000000000000000000000000000000000000000000000000815260040180806020018281038252600d8152602001807f496e76616c69642070686173650000000000000000000000000000000000000081525060200191505060405180910390fd5b600080905060008090505b6003805490508110156119425781600382815481106118fc57fe5b90600052602060002001600001541115611935576003818154811061191d57fe5b90600052602060002001600001549150806009819055505b80806001019150506118e1565b506001600a60006101000a81548160ff0219169083151502179055505050565b6000809054906101000a900473ffffffffffffffffffffffffffffffffffffffff1673ffffffffffffffffffffffffffffffffffffffff163373ffffffffffffffffffffffffffffffffffffffff1614611a24576040517f08c379a000000000000000000000000000000000000000000000000000000000815260040180806020018281038252601b8152602001807f596f7520617265206e6f7420746865204368616972706572736f6e000000000081525060200191505060405180910390fd5b6001806004811115611a3257fe5b600460009054906101000a900460ff166004811115611a4d57fe5b14611ac0576040517f08c379a000000000000000000000000000000000000000000000000000000000815260040180806020018281038252600d8152602001807f496e76616c69642070686173650000000000000000000000000000000000000081525060200191505060405180910390fd5b600060025411611b1b576040517f08c379a000000000000000000000000000000000000000000000000000000000815260040180806020018281038252602581526020018061256f6025913960400191505060405180910390fd5b600280811115611b2757fe5b600660009054906101000a900460ff166002811115611b4257fe5b1415611b99576040517f08c379a000000000000000000000000000000000000000000000000000000000815260040180806020018281038252602e81526020018061260e602e913960400191505060405180910390fd5b60006008541415611bf5576040517f08c379a00000000000000000000000000000000000000000000000000000000081526004018080602001828103825260348152602001806126746034913960400191505060405180910390fd5b60085442016007819055506002600460006101000a81548160ff02191690836004811115611c1f57fe5b021790555050565b600460009054906101000a900460ff1681565b6000809054906101000a900473ffffffffffffffffffffffffffffffffffffffff1673ffffffffffffffffffffffffffffffffffffffff163373ffffffffffffffffffffffffffffffffffffffff1614611cfc576040517f08c379a000000000000000000000000000000000000000000000000000000000815260040180806020018281038252601b8152602001807f596f7520617265206e6f7420746865204368616972706572736f6e000000000081525060200191505060405180910390fd5b6002806004811115611d0a57fe5b600460009054906101000a900460ff166004811115611d2557fe5b14611d98576040517f08c379a000000000000000000000000000000000000000000000000000000000815260040180806020018281038252600d8152602001807f496e76616c69642070686173650000000000000000000000000000000000000081525060200191505060405180910390fd5b6003600460006101000a81548160ff02191690836004811115611db757fe5b021790555050565b6000809054906101000a900473ffffffffffffffffffffffffffffffffffffffff1673ffffffffffffffffffffffffffffffffffffffff163373ffffffffffffffffffffffffffffffffffffffff1614611e81576040517f08c379a000000000000000000000000000000000000000000000000000000000815260040180806020018281038252601b8152602001807f596f7520617265206e6f7420746865204368616972706572736f6e000000000081525060200191505060405180910390fd5b6001806004811115611e8f57fe5b600460009054906101000a900460ff166004811115611eaa57fe5b14611f1d576040517f08c379a000000000000000000000000000000000000000000000000000000000815260040180806020018281038252600d8152602001807f496e76616c69642070686173650000000000000000000000000000000000000081525060200191505060405180910390fd5b60008360ff1611611f96576040517f08c379a000000000000000000000000000000000000000000000000000000000815260040180806020018281038252601d8152602001807f416c706861206d757374206265206d6f7265207468616e207a65726f2e00000081525060200191505060405180910390fd5b60018260ff1610158015611fae575060058260ff1611155b612003576040517f08c379a000000000000000000000000000000000000000000000000000000000815260040180806020018281038252605881526020018061248a6058913960600191505060405180910390fd5b60018260ff1614156120285762093a808360ff160262ffffff166008819055506120ac565b60028260ff16141561204d57620151808360ff160262ffffff166008819055506120ab565b60038260ff16141561207057610e108360ff160261ffff166008819055506120aa565b60048260ff16141561208e57603c830260ff166008819055506120a9565b60058260ff1614156120a8576001830260ff166008819055505b5b5b5b5b505050565b6000600160003373ffffffffffffffffffffffffffffffffffffffff1673ffffffffffffffffffffffffffffffffffffffff16815260200190815260200160002060010160009054906101000a900460ff16612175576040517f08c379a000000000000000000000000000000000000000000000000000000000815260040180806020018281038252601b8152602001807f5368617265686f6c646572206e6f7420726567697374657265642e000000000081525060200191505060405180910390fd5b61217d612432565b600160003373ffffffffffffffffffffffffffffffffffffffff1673ffffffffffffffffffffffffffffffffffffffff168152602001908152602001600020604051806040016040529081600082015481526020016001820160009054906101000a900460ff1615151515815250509050600081600001511415612205576000915050612246565b6001600281111561221257fe5b600660009054906101000a900460ff16600281111561222d57fe5b141561223d576001915050612246565b80600001519150505b90565b6000809054906101000a900473ffffffffffffffffffffffffffffffffffffffff1673ffffffffffffffffffffffffffffffffffffffff163373ffffffffffffffffffffffffffffffffffffffff161461230b576040517f08c379a000000000000000000000000000000000000000000000000000000000815260040180806020018281038252601b8152602001807f596f7520617265206e6f7420746865204368616972706572736f6e000000000081525060200191505060405180910390fd5b600380600481111561231957fe5b600460009054906101000a900460ff16600481111561233457fe5b146123a7576040517f08c379a000000000000000000000000000000000000000000000000000000000815260040180806020018281038252600d8152602001807f496e76616c69642070686173650000000000000000000000000000000000000081525060200191505060405180910390fd5b600a60009054906101000a900460ff1661240c576040517f08c379a000000000000000000000000000000000000000000000000000000000815260040180806020018281038252603581526020018061253a6035913960400191505060405180910390fd5b60048060006101000a81548160ff0219169083600481111561242a57fe5b021790555050565b604051806040016040528060008152602001600015158152509056fe596f752073656e74206d6f726520766f746573202f206c61726765722070657263656e74616765207468616e20796f752068617665206c6566742e43616e6e6f74206861766520604e6f745365746020617320612074696d6520756e69742e20313a207765656b732c20323a20646179732c20333a20686f7572732c20343a206d696e757465732c20353a207365636f6e647350657263656e7461676520746f6f20736d616c6c2e204e6f20766f746573206265696e672073656e74206f75742e596f752061726520766f74696e6720696e206120646966666572656e7420766f74696e67206d6f64652e57696e6e657220686173206e6f74206265656e2073656c6563746564207965742e2052756e2060636f756e74566f7465732829602e4e6f207368617265686f6c646572732068617665206265656e20726567697374657265642e43616e6e6f742073657420766f74696e67206d6f646520746f20604e6f74536574602e596f752073656e74206d6f726520766f746573207468616e20796f752068617665206c6566742e41207368617265686f6c6465722073686f756c642068617665206d6f7265207468616e207a65726f207368617265732e566f74696e67206d6f6465206e6f74207365742e2052756e2060736574566f74696e674d6f6465282e2e2e29602e50657263656e74616765206d75737420626520612076616c69642070657263656e74616765206265747765656e203120616e64203130302e566f74696e6720646561646c696e65206e6f74207365742e2052756e2060736574566f746554696d656c696e65282e2e2e29602e54686973207368617265686f6c6465722068617320616c7265616479206265656e20726567697374657265642ea165627a7a72305820a535cce1726e008f939fa9c44b7fcb8e9dc1684197ff40b916c59c70936d05df00295468657265206d757374206265206d6f7265207468616e206f6e652070726f706f73616c20746f20766f7465206f6e2e",
  "source": "pragma solidity ^0.5.2;\n\ncontract ShBallot {\n    // DATA STRUCTURES\n    struct Shareholder {\n        uint numSharesOwned;\n        bool registered;\n    }\n\n    struct Proposal {\n        uint256 voteCount;\n    }\n\n    address chairperson;\n    mapping(address => Shareholder) shareholders;\n    uint numShareholders;\n    Proposal[] proposals;\n\n    enum Phase { Init, Regs, Vote, Done, Released }\n    enum VoteMode { OnePerShare, OneVote, NotSet }\n\n    Phase public state;\n    uint public numChoices;\n\n    VoteMode public votingMode;\n    uint public votingDeadline;\n    uint public votingDuration;\n\n    uint winner;\n    bool public winnerSelected;\n\n    // MODIFIERS\n    modifier validPhase(Phase reqPhase) {\n        require(state == reqPhase, \"Invalid phase\");\n        _;\n    }\n\n    modifier validVoteMode(VoteMode mode) {\n        require(votingMode == mode, \"You are voting in a different voting mode.\");\n        _;\n    }\n\n    modifier shareholderRegistered() {\n        require(shareholders[msg.sender].registered, \"Shareholder not registered.\");\n        _;\n    }\n\n    modifier onlyChair() {\n        require(msg.sender == chairperson, \"You are not the Chairperson\");\n        _;\n    }\n\n    modifier onlyShareholder() {\n        require(msg.sender != chairperson, \"You are not a shareholder\");\n        _;\n    }\n\n    modifier beforeDeadline() {\n        require(now <= votingDeadline, \"Voting deadline has passed!\");\n        _;\n    }\n\n    modifier validProposal(uint num) {\n        require(num >= 0 && num < numChoices, \"There not that many proposals.\");\n        _;\n    }\n\n    modifier canStillVote(address toCheck) {\n        require(shareholders[toCheck].numSharesOwned > 0, \"You have used all of your votes\");\n        _;\n    }\n\n    // CONSTRUCTOR\n    constructor (uint8 numProposals)\n        public\n    {\n        require(numProposals > 1, \"There must be more than one proposal to vote on.\");\n        chairperson = msg.sender;\n        proposals.length = numProposals;\n        state = Phase.Regs;\n        votingMode = VoteMode.NotSet;\n        votingDeadline = 0;\n        votingDuration = 0;\n        winnerSelected = false;\n        numChoices = numProposals;\n        numShareholders = 0;\n    }\n\n    //chairperson functions\n    function registerShareholder(address shareholder, uint numSharesOwned)\n        public\n        onlyChair\n        validPhase(Phase.Regs)\n    {\n        require(!shareholders[shareholder].registered, \"This shareholder has already been registered.\");\n        require(numSharesOwned > 0, \"A shareholder should have more than zero shares.\");\n        shareholders[shareholder].registered = true;\n        shareholders[shareholder].numSharesOwned = numSharesOwned;\n        numShareholders += 1;\n    }\n\n    function setVotingMode(VoteMode mode)\n        public\n        onlyChair\n    {\n        require(mode != VoteMode.NotSet, \"Cannot set voting mode to `NotSet`.\");\n        votingMode = mode;\n    }\n\n    function setVoteTimeline(uint8 howLong, uint8 unit)\n        public\n        onlyChair\n        validPhase(Phase.Regs)\n    {\n        require(howLong > 0, \"Alpha must be more than zero.\");\n        require(unit>=1 && unit<=5, \"Cannot have `NotSet` as a time unit. 1: weeks, 2: days, 3: hours, 4: minutes, 5: seconds\");\n        if (unit == 1) {\n            votingDuration = howLong * 1 weeks;\n        } else if (unit == 2) {\n            votingDuration = howLong * 1 days;\n        } else if (unit == 3) {\n            votingDuration = howLong * 1 hours;\n        } else if (unit == 4) {\n            votingDuration = howLong * 1 minutes;\n        } else if (unit == 5) {\n            votingDuration = howLong * 1 seconds;\n        }\n    }\n\n    function beginVoting()\n        public\n        onlyChair\n        validPhase(Phase.Regs)\n    {\n        require(numShareholders > 0, \"No shareholders have been registered.\");\n        require(votingMode != VoteMode.NotSet, \"Voting mode not set. Run `setVotingMode(...)`.\");\n        require(votingDuration != 0, \"Voting deadline not set. Run `setVoteTimeline(...)`.\");\n        votingDeadline = now + votingDuration;\n        state = Phase.Vote;\n    }\n\n    function endVoting()\n        public\n        onlyChair\n        validPhase(Phase.Vote)\n    {\n        state = Phase.Done;\n    }\n\n    function countVotes()\n        public\n        onlyChair\n        validPhase(Phase.Done)\n    {\n        uint winningVoteCount = 0;\n        for (uint prop = 0; prop < proposals.length; prop++)\n            if (proposals[prop].voteCount > winningVoteCount) {\n                winningVoteCount = proposals[prop].voteCount;\n                winner = prop;\n            }\n        winnerSelected = true;\n    }\n\n    function releaseWinner()\n        public\n        onlyChair\n        validPhase(Phase.Done)\n    {\n        require(winnerSelected, \"Winner has not been selected yet. Run `countVotes()`.\");\n        state = Phase.Released;\n    }\n\n    //shareholder functions\n    function singleVote(uint8 toProposal)\n        public\n        beforeDeadline\n        shareholderRegistered\n        validPhase(Phase.Vote)\n        validProposal(toProposal)\n        validVoteMode(VoteMode.OneVote)\n        canStillVote(msg.sender)\n    {\n        Shareholder storage shareholder = shareholders[msg.sender];\n        proposals[toProposal].voteCount += 1;\n        shareholder.numSharesOwned = 0;\n    }\n\n    function allocateVotesByNumber(uint8 toProposal, uint numVotes)\n        public\n        beforeDeadline\n        shareholderRegistered\n        validPhase(Phase.Vote)\n        validProposal(toProposal)\n        validVoteMode(VoteMode.OnePerShare)\n        canStillVote(msg.sender)\n    {\n        Shareholder storage shareholder = shareholders[msg.sender];\n        require(numVotes <= shareholder.numSharesOwned, \"You sent more votes than you have left.\");\n        proposals[toProposal].voteCount += numVotes;\n        shareholder.numSharesOwned -= numVotes;\n    }\n\n    function allocateVotesByPercentage(uint8 toProposal, uint8 percentage)\n        public\n        beforeDeadline\n        shareholderRegistered\n        validPhase(Phase.Vote)\n        validProposal(toProposal)\n        validVoteMode(VoteMode.OnePerShare)\n        canStillVote(msg.sender)\n    {\n        require(percentage > 0 && percentage <= 100, \"Percentage must be a valid percentage between 1 and 100.\");\n        Shareholder storage shareholder = shareholders[msg.sender];\n        uint numVotes = (shareholder.numSharesOwned * percentage) / 100;\n        require(numVotes > 0, \"Percentage too small. No votes being sent out.\");\n        require(shareholder.numSharesOwned + numVotes >= 0, \"You sent more votes / larger percentage than you have left.\");\n        proposals[toProposal].voteCount += numVotes;\n        shareholder.numSharesOwned -= numVotes;\n    }\n\n    function getNumRemainingVotes()\n        public\n        view\n        shareholderRegistered\n        returns(uint)\n    {\n        Shareholder memory shareholder = shareholders[msg.sender];\n        if (shareholder.numSharesOwned == 0) {\n            return 0;\n        } else {\n            if (votingMode == VoteMode.OneVote) {\n                return 1;\n            }\n            return shareholder.numSharesOwned;\n        }\n    }\n\n    function getWinner()\n        public\n        view\n        validPhase(Phase.Released)\n        returns (uint)\n    {\n        return winner;\n    }\n\n    function isChairperson()\n        public\n        view\n        returns (bool)\n    {\n        return msg.sender == chairperson;\n    }\n}\n",
  "sourcePath": "/Users/hansbas/Documents/University at Buffalo/2019-2020/Fall 2019/CSE 426/shareholder-ballot/ballot-contract/contracts/ShBallot.sol",
  "compiler": {
    "name": "solc",
    "version": "0.5.8+commit.23d335f2.Emscripten.clang"
  },
  "schemaVersion": "3.0.16",
  "updatedAt": "2019-11-04T22:24:23.728Z",
  "devdoc": {
    "methods": {}
  },
  "userdoc": {
    "methods": {}
  }
}